:0400000080311F2804
:100008007E14803120007F08F6008B1A0B1D102803
:100018008131A22180311A280B1F1A282100111CB6
:100028001A282000111C1A288131F3217608200093
:10003800FF007E100900803121288231362280316C
:10004800FB0082313722FC00F901FA01AF01B0014F
:10005800B101B201B3017E1020008031CF287A08A7
:10006800031D4928823104228031003A031D08000B
:100078000130F0007008FA002000B001B101AF01B2
:100088000230F0007008FA00080002307A06031DFA
:100098006D28823104228031003A03195F2801302B
:1000A800F0002000300A5928F035890B58287008CC
:1000B800F1007108AF070130F00070082000B007A8
:1000C80008303002031C08000330F0007008FA0002
:1000D800080003307A06031D0800823104228031AB
:1000E800003A03197E280130F00070082000B100A2
:1000F800FA0108002000B101FA0108007908031983
:10010800A3287B09F2007C09F300F20A0319F30A19
:100118007208A03EF4000F30733DF500F409F509AC
:10012800F40A0319F50A7408FF3EF000FF30753D24
:10013800F10081319321F90122000C1208000130ED
:10014800F2007208F9007B087C04031DBD287B09B6
:10015800F2007C09F300F20A0319F30A7208FF3E61
:10016800F000FF30733DF1008131932122000C1221
:1001780008007B09F2007C09F300F20A0319F30A6C
:100188007208FF3EF000FF30733DF100813193218A
:1001980022000C16080081312E2180318B170B1795
:1001A80022000C1682302000A0000030A10082310D
:1001B8000B2280318131D421803182312A22803151
:1001C800003A0319E1288231222280312000A6005A
:1001D8002608A70030302702031C09293A302702D5
:1001E800031809292708D03EA000FF300318003063
:1001F800A1009030A2000130A3008131122180318A
:1002080020002108FC002008FB00823133228031C5
:10021800200027088131FC218031E1282000A40139
:10022800A501201C1B292208A4072308A53D01308D
:10023800A235A30D890B1C290130A136A00C890B0E
:10024800212920082104031D15292508A1002408B7
:10025800A000080081314921813182311D2281317C
:100268008231262281318131BC2181318131EA21DB
:1002780081318131642181318131C82181318131DC
:100288007E2181318131B021080022008C012A3081
:1002980021008C00103023008C003F3024008C009B
:1002A8002100951322009D012700931292169116A2
:1002B80000302000A0000030A10082311722080081
:1002C800043020009800990163309700C0309600F0
:1002D8001708F8001608F70011102100111438301B
:1002E8002000A0000230A10082310B22813182312E
:1002F8003022080021001508C039113895009830BF
:10030800200095009830A2002208AE000B118B1631
:100318003930A0000230A1008231112208002000EB
:10032800181D9D2918107108970070089600181458
:100338000800710897007008960008000B1120004B
:100348002E089500280829040319080029088A009E
:1003580028080A0081310800083023009F009030E7
:100368009D0024309E0082309B0006309C000800CF
:100378001C302500930095019930940011309600A7
:10038800343091009201080027001C179C161C129B
:100398008A309D0080309F00A4309E009C17080082
:1003A8002000B001AF01B1013330A0000030A1003E
:1003B80082311122080020002A082B0403190800A2
:1003C8002B088A002A080A008131080020009C01B5
:1003D80068309B009A01911082312D22080020007C
:1003E800111078089700770896008131DF210800FE
:1003F8002000A000111EFE29200823009A000800F2
:1004080020008C1E092A0130080000300800200056
:100418002108AB002008AA00080020002108A90034
:100428002008A800080020002108AD002008AC0022
:100438000800783021009900980108002000B101D7
:100448002F08080016302100970008002000310806
:10045800080020001C1508002000181408002700B8
:0C0468009C170800DC3405340800080074
:020000040001F9
:04000E00E4FFFFFF0D
:00000001FF
