:0400000080313028F3
:100008007E14803120007F08F6000B1F1528210080
:10001800921D15282000921D152886313E26803114
:100028002B280B1F21282100911D21282000911D1C
:10003800212880315C2080312B280B1F2B282100A0
:10004800111C2B282000111C2B288531E825760847
:100058002000FF007E1009008031322886313B26BF
:100068008031FC0086313C268031FD00F13084006F
:1000780085308500A830860000308700083086313A
:1000880017268031F701F801F90153308400003058
:100098008500183086311D268031A030840000305C
:1000A8008500083086311D267E10200081319C296C
:1000B800200091112400951F902995132000E70135
:1000C8006508023E860087010108860087018101D4
:1000D800810AE5010800D51808005408F2007208E2
:1000E800E5005408860087010108F2007208E6005E
:1000F800540886008701413FF7000330F200720878
:10010800D40754086B3A031D8D286830F200720832
:10011800D4005510540853060319D5142400161496
:100128000230F20072082000E7000800240096144C
:100138000230F20072082000E70008002400161FB1
:10014800AE280130F20072082000D707043085314C
:100158003A2508007908F3007808F200F336F20C23
:10016800720824009100781CBF280B30F200720836
:100178002000E70008000330F20072082000E700C2
:1001880008002400161FD1280130F2007208200050
:10019800D707043085313A25080096147908F3000A
:1001A8007808F2007308F200F30106307205F400D3
:1001B80000307305F500F0307404F8000030750461
:1001C800F90078142000E201E20A0230F200720815
:1001D800E7000800620303190229770886008701EF
:1001E800403FF800413FF900770886008701433F08
:1001F800E400770886008701423FE300780824007E
:100208009100781C0D290530F20072082000E700E3
:1002180008000330F20072082000E70008002400FC
:10022800161F21290130F20072082000D707240088
:100238001613053085313A25080001302000E30205
:10024800630A031D3B290430F2007208F7070130E6
:10025800E602031D3329003085313A2508002400C1
:1002680096140230F20072082000E70008006408C3
:10027800860087010108240091000130F20072080D
:100288002000E40708002400161F55290130F20059
:1002980072082000D707043085313A252400161348
:1002A800080096150830F20072082000E7000800E0
:1002B8000830F2007208E7002400961508002400B0
:1002C8001108F20020006408860087017208810086
:1002D8000130F2007208E4070130E30203197C29B7
:1002E800240096120630F20072082000E7008029E8
:1002F800240096168531782524001616080000304B
:1003080085313A2508000130F20072082000D7072D
:10031800063085313A2508002000670884000C3033
:1003280004020318872985310435223E820008001B
:100338008531662581318B170B1715302000A000F9
:100348000330A10086312326813129302000CD00D9
:100358009630CC007F30890BAF29CC0BAF29CD0B61
:10036800AF2912302000CC004C08CE000230CC005F
:100378004C08D000A701A70A3F30A8000030A90008
:100388005030CC004C08AA004E308331ED23813127
:100398008231A52281318531982581312000C10122
:1003A8000030843115248131A9302000C100833008
:1003B800C2008431EF2481312000C101C10A00301C
:1003C800843115248131CB302000C1008330C20034
:1003D8008431EF24813152302000CD002B30CC0005
:1003E8000030890BF529CC0BF529CD0BF529000038
:1003F8008531982581312000C101003084311524D0
:100408008131BA302000C1008330C2008431EF242A
:1004180081312000C101C10A0030843115248131A5
:10042800DC302000C1008330C2008431EF248131E8
:1004380052302000CD002B30CC000030890B222A0E
:10044800CC0B222ACD0B222A000085319825813138
:100458002000D101911E2E2A8531DE258131200010
:10046800CC004C08D20030305202031C522A3A30D9
:1004780052020318522A5208D03EA000FF30031837
:100488000030A1009030A2000130A3008431B924CB
:10049800813120002108FD002008FC005208863127
:1004A80001268131613020005202031C5F2A7B3013
:1004B8005202031C772A41305202031C672A5B3020
:1004C8005202031C772A30305202031C6F2A3A303A
:1004D8005202031C772A21305202031C2E2A2A308A
:1004E800520203182E2A1030510203187E2AC10125
:1004F8005108972A2030200051020318882AC10188
:10050800C10A51080F39972A203020005106031DCF
:100518009F2A8531982581312000D1015108CC00CE
:100528004C08C10000308431152481312000520864
:1005380086312926813101302000CC004C08D107B2
:100548002E2A2000DA150430C2004208DB000230EF
:100558002000C3000430C200BA30890BB12AC20B94
:10056800B12AC30BB12A000004302000C20042089F
:10057800AE003F3084315B2482318530890BC22A3A
:10058800000030308531A525823118302000C200A6
:100598005F30890BCD2AC20BCD2A30308531A52595
:1005A8008231C830890BD62A30308531A525823171
:1005B800C830890BDD2A20308531A5258231C83025
:1005C800890BE42A08302000C2004208DF005F08D7
:1005D80020388631102682312000DD018531D4256E
:1005E800823186310926823102302000C200420859
:1005F800DE005E08043886311026823120005D084E
:10060800083886311026823108302000C20042089E
:10061800DC005C0810388631102682318531982537
:100628000800200061080319372BE1017C09F2005A
:100638007D09F300F20A0319F30A7208A03EF400D8
:100648000F30733DF500F409F509F40A0319F50AAA
:100658007408FF3EF000FF30753DF10085318925B3
:1006680022008E1108000130F20072082000E1001B
:100678007C087D04031D522B7C09F2007D09F300E0
:10068800F20A0319F30A7208FF3EF000FF30733DC7
:10069800F1008531892522008E1108007C09F200BD
:1006A8007D09F300F20A0319F30A7208FF3EF0000D
:1006B800FF30733DF1008531892522008E15080031
:1006C8002000A3005518982B0230A20021088600AC
:1006D8008701220881002008A200530A86008701AA
:1006E800220881002308A2005308860087012208F7
:1006F80081002108A2005308023E860087012208D3
:1007080081000330A2002208D30753086B3A031D67
:10071800912B6830A2002208D300D5105408530644
:10072800031D9D2B55149D2B2108860087018101EF
:10073800810A21088600870102300106031D08008E
:100748006708031DA42B9115080020342034203499
:1007580050344934433431343634463431343834FF
:1007680032343934203420342034003420342034D6
:1007780044346534763465346C346F34703465349D
:1007880064342034423479342034203400345234F0
:1007980065346334653469347634653472342034AE
:1007A800563465347234203431342E3430340034C5
:1007B8004A3469346E347A3468346F347534793431
:1007C80075346E343234303431343734303435346F
:1007D80000342000AD0055180E2C2D08AB002B0856
:1007E800A0002708AC002C08A1002908A3002808AD
:1007F800A200A43084317C248331A4302000AB00D3
:100808002B08A0002A08AC002C08A1000130833175
:100818006423080020002A08860087018101810AD4
:1008280008002000CB00A830860000308700433045
:100838008400003085000830C20016001A00C20B80
:10084800212C5B084102031C2E2C5B08FF3EC200D2
:100858004208C1004135433E8600870101084B0725
:1008680080388631102608002000BF003F08F03984
:10087800BB003B08BD003F08BB000330BB35FF3E53
:10088800031D422C3B35BC003C08BE00F030BB00C9
:100898003B08BE053D083A0404388531A525843156
:1008A80020003E083A0404388531A52508002000B8
:1008B800B4002E08AF002F08B2000230AF002F0896
:1008C800B500A701A70A3408AF00B0012F08A80097
:1008D8003008A9003530B1003108AA003230833120
:1008E800ED238431023020003506031D0800762CE4
:1008F8002000A6002308A5002208A400A435A50D01
:100908002608860087012408C03F2508C13F210822
:10091800A4002608023E86008701240881002008DA
:10092800A4002608033E86008701240881000800E9
:1009380022008C018D018E013B3021008C00F030AB
:100948008D008E01CF3023008E008D0117308C0072
:10095800F03024008D003F308C00FF308E002100E5
:10096800951322009E019D0108002000A401A50105
:10097800201CC22C2208A4072308A53D0130A2355B
:10098800A30D890BC32C0130A136A00C890BC82CF0
:1009980020082104031DBC2C2508A1002408A00060
:1009A80008000430200098009901F030970060306A
:1009B80096001708FB001608FA0011102100111400
:1009C8003D302000A0000630A10086312326843166
:1009D80086313826080020004208C5004108C400B6
:1009E80044088400450885001200031908004408DB
:1009F80084004508850000088531F92584310130D7
:100A08002000C4070030C53DF42C68302000A00049
:100A18002008D4006830A0002008D300D514551051
:100A2800D7018030240094002830950097010830C1
:100A380092002000911121009115080080316F2843
:100A480080319A288031EE28813113298131832918
:100A58008131472981315C29813183298131632999
:100A6800813187298031A2288031C528F1002400EE
:100A7800161520006508023E860087010108031943
:100A8800502D7108F0006508023E860087010108B4
:100A98008600870170088100E70108002000B8007F
:100AA800380804388531BE258531003200322000EF
:100AB8003808FB398531BE2585314230890B622DD6
:100AC8000032080084319C24853186312F268531F7
:100AD8008631342685318531092585318431D524FF
:100AE80085318531B22508000430F0007008F70719
:100AF80001302000E602031D862D0430F000700846
:100B0800E7000800E701E70A08002000181D932DF8
:100B180018107108970070089600181408007108DA
:100B2800970070089600080001308631102685313C
:100B38009C302000C100D730890BA02DC10BA02DFF
:100B480008002000B9003908FD398531BE258531F6
:100B580020003908FD398531522508000830230066
:100B68009F0090309D0024309E0082309B0006300C
:100B78009C0008002000B70037085A04B600360861
:100B8800AE003F3084315B24080020006B086C0401
:100B9800031908006C088A006B080A0085310800F0
:100BA800FB302000C1004108DD055D0808388631AA
:100BB800102608002000911EDE2D23009D1CE62D26
:100BC8009D139D1719080800200011107B08970035
:100BD8007A0896008531C92508000034003440346D
:100BE800003414340034543400342000C000BA01F6
:100BF800BA0A40088431382408002000A000111ED9
:100C0800032E200823009A00080020005D155D08C7
:100C180008388631102608002000C000BA014008B4
:100C2800843138240800FE0012001E00FE0B182E26
:100C38000034640080010131890B1E2E003420002D
:100C48002108EC002008EB0008002000C100410842
:100C58008531F925080078302100990098010800AD
:100C680016302100970008002000181408001034DE
:060C78000E340800080024
:020000040001F9
:04000E00E4FFFFDF2D
:00000001FF
